{
    "_format": "hh-sol-artifact-1",
    "contractName": "FinanceFundFactory",
    "sourceName": "contracts/FinanceFund.sol",
    "abi": [
        {
            "anonymous": false,
            "inputs": [
                {
                    "indexed": false,
                    "internalType": "string",
                    "name": "projectName",
                    "type": "string"
                },
                {
                    "indexed": true,
                    "internalType": "string",
                    "name": "relevantMinistry",
                    "type": "string"
                },
                {
                    "indexed": false,
                    "internalType": "uint256",
                    "name": "fundAmount",
                    "type": "uint256"
                },
                {
                    "indexed": true,
                    "internalType": "address",
                    "name": "owner",
                    "type": "address"
                },
                {
                    "indexed": false,
                    "internalType": "address",
                    "name": "fundRequest",
                    "type": "address"
                },
                {
                    "indexed": true,
                    "internalType": "uint256",
                    "name": "timestamp",
                    "type": "uint256"
                }
            ],
            "name": "fundRequestCreated",
            "type": "event"
        },
        {
            "inputs": [
                {
                    "internalType": "string",
                    "name": "_projectName",
                    "type": "string"
                },
                {
                    "internalType": "string",
                    "name": "_relevantMinistry",
                    "type": "string"
                },
                {
                    "internalType": "uint256",
                    "name": "_fundAmount",
                    "type": "uint256"
                }
            ],
            "name": "createFinanceFund",
            "outputs": [],
            "stateMutability": "nonpayable",
            "type": "function"
        },
        {
            "inputs": [
                {
                    "internalType": "uint256",
                    "name": "",
                    "type": "uint256"
                }
            ],
            "name": "deployedFundsRequest",
            "outputs": [
                {
                    "internalType": "address",
                    "name": "",
                    "type": "address"
                }
            ],
            "stateMutability": "view",
            "type": "function"
        }
    ],
    "bytecode": "0x608060405234801561001057600080fd5b506111f1806100206000396000f3fe60806040523480156200001157600080fd5b50600436106200003a5760003560e01c8063ab5b6627146200003f578063e06bcdf2146200005f575b600080fd5b6200005d6004803603810190620000579190620003ad565b62000095565b005b6200007d600480360381019062000077919062000447565b620001ae565b6040516200008c9190620004be565b60405180910390f35b600083838333604051620000a990620001ee565b620000b894939291906200057f565b604051809103906000f080158015620000d5573d6000803e3d6000fd5b5090506000819080600181540180825580915050600190039060005260206000200160009091909190916101000a81548173ffffffffffffffffffffffffffffffffffffffff021916908373ffffffffffffffffffffffffffffffffffffffff160217905550423373ffffffffffffffffffffffffffffffffffffffff16846040516200016391906200061c565b60405180910390207f792681fe205ff11a9dc755494a18990a45f23871bb160711a2bded9915922256878686604051620001a09392919062000635565b60405180910390a450505050565b60008181548110620001bf57600080fd5b906000526020600020016000915054906101000a900473ffffffffffffffffffffffffffffffffffffffff1681565b610b42806200067a83390190565b6000604051905090565b600080fd5b600080fd5b600080fd5b600080fd5b6000601f19601f8301169050919050565b7f4e487b7100000000000000000000000000000000000000000000000000000000600052604160045260246000fd5b62000265826200021a565b810181811067ffffffffffffffff821117156200028757620002866200022b565b5b80604052505050565b60006200029c620001fc565b9050620002aa82826200025a565b919050565b600067ffffffffffffffff821115620002cd57620002cc6200022b565b5b620002d8826200021a565b9050602081019050919050565b82818337600083830152505050565b60006200030b6200030584620002af565b62000290565b9050828152602081018484840111156200032a576200032962000215565b5b62000337848285620002e5565b509392505050565b600082601f83011262000357576200035662000210565b5b813562000369848260208601620002f4565b91505092915050565b6000819050919050565b620003878162000372565b81146200039357600080fd5b50565b600081359050620003a7816200037c565b92915050565b600080600060608486031215620003c957620003c862000206565b5b600084013567ffffffffffffffff811115620003ea57620003e96200020b565b5b620003f8868287016200033f565b935050602084013567ffffffffffffffff8111156200041c576200041b6200020b565b5b6200042a868287016200033f565b92505060406200043d8682870162000396565b9150509250925092565b60006020828403121562000460576200045f62000206565b5b6000620004708482850162000396565b91505092915050565b600073ffffffffffffffffffffffffffffffffffffffff82169050919050565b6000620004a68262000479565b9050919050565b620004b88162000499565b82525050565b6000602082019050620004d56000830184620004ad565b92915050565b600081519050919050565b600082825260208201905092915050565b60005b8381101562000517578082015181840152602081019050620004fa565b8381111562000527576000848401525b50505050565b60006200053a82620004db565b620005468185620004e6565b935062000558818560208601620004f7565b62000563816200021a565b840191505092915050565b620005798162000372565b82525050565b600060808201905081810360008301526200059b81876200052d565b90508181036020830152620005b181866200052d565b9050620005c260408301856200056e565b620005d16060830184620004ad565b95945050505050565b600081905092915050565b6000620005f282620004db565b620005fe8185620005da565b935062000610818560208601620004f7565b80840191505092915050565b60006200062a8284620005e5565b915081905092915050565b600060608201905081810360008301526200065181866200052d565b90506200066260208301856200056e565b620006716040830184620004ad565b94935050505056fe60806040523480156200001157600080fd5b5060405162000b4238038062000b428339818101604052810190620000379190620003a8565b83600090805190602001906200004f929190620000bb565b50826001908051906020019062000068929190620000bb565b508160028190555080600360006101000a81548173ffffffffffffffffffffffffffffffffffffffff021916908373ffffffffffffffffffffffffffffffffffffffff16021790555050505050620004bd565b828054620000c99062000487565b90600052602060002090601f016020900481019282620000ed576000855562000139565b82601f106200010857805160ff191683800117855562000139565b8280016001018555821562000139579182015b82811115620001385782518255916020019190600101906200011b565b5b5090506200014891906200014c565b5090565b5b80821115620001675760008160009055506001016200014d565b5090565b6000604051905090565b600080fd5b600080fd5b600080fd5b600080fd5b6000601f19601f8301169050919050565b7f4e487b7100000000000000000000000000000000000000000000000000000000600052604160045260246000fd5b620001d48262000189565b810181811067ffffffffffffffff82111715620001f657620001f56200019a565b5b80604052505050565b60006200020b6200016b565b9050620002198282620001c9565b919050565b600067ffffffffffffffff8211156200023c576200023b6200019a565b5b620002478262000189565b9050602081019050919050565b60005b838110156200027457808201518184015260208101905062000257565b8381111562000284576000848401525b50505050565b6000620002a16200029b846200021e565b620001ff565b905082815260208101848484011115620002c057620002bf62000184565b5b620002cd84828562000254565b509392505050565b600082601f830112620002ed57620002ec6200017f565b5b8151620002ff8482602086016200028a565b91505092915050565b6000819050919050565b6200031d8162000308565b81146200032957600080fd5b50565b6000815190506200033d8162000312565b92915050565b600073ffffffffffffffffffffffffffffffffffffffff82169050919050565b6000620003708262000343565b9050919050565b620003828162000363565b81146200038e57600080fd5b50565b600081519050620003a28162000377565b92915050565b60008060008060808587031215620003c557620003c462000175565b5b600085015167ffffffffffffffff811115620003e657620003e56200017a565b5b620003f487828801620002d5565b945050602085015167ffffffffffffffff8111156200041857620004176200017a565b5b6200042687828801620002d5565b935050604062000439878288016200032c565b92505060606200044c8782880162000391565b91505092959194509250565b7f4e487b7100000000000000000000000000000000000000000000000000000000600052602260045260246000fd5b60006002820490506001821680620004a057607f821691505b60208210811415620004b757620004b662000458565b5b50919050565b61067580620004cd6000396000f3fe6080604052600436106100555760003560e01c806315f9a0c61461005a578063504d27fd1461008557806350ac16031461008f5780638da5cb5b146100ba5780639a33e300146100e5578063aaf7e70414610110575b600080fd5b34801561006657600080fd5b5061006f61013b565b60405161007c919061043b565b60405180910390f35b61008d6101c9565b005b34801561009b57600080fd5b506100a46102e2565b6040516100b19190610476565b60405180910390f35b3480156100c657600080fd5b506100cf6102e8565b6040516100dc91906104d2565b60405180910390f35b3480156100f157600080fd5b506100fa61030e565b604051610107919061043b565b60405180910390f35b34801561011c57600080fd5b5061012561039c565b6040516101329190610476565b60405180910390f35b600180546101489061051c565b80601f01602080910402602001604051908101604052809291908181526020018280546101749061051c565b80156101c15780601f10610196576101008083540402835291602001916101c1565b820191906000526020600020905b8154815290600101906020018083116101a457829003601f168201915b505050505081565b6004546002541161020f576040517f08c379a00000000000000000000000000000000000000000000000000000000081526004016102069061059a565b60405180910390fd5b600360009054906101000a900473ffffffffffffffffffffffffffffffffffffffff1673ffffffffffffffffffffffffffffffffffffffff166108fc349081150290604051600060405180830381858888f19350505050158015610277573d6000803e3d6000fd5b50346004600082825461028a91906105e9565b92505081905550343373ffffffffffffffffffffffffffffffffffffffff167fd1a457b351ac54a036510f43d910e9047697edd68abc91bb1f73a9038f4c1843426040516102d89190610476565b60405180910390a3565b60045481565b600360009054906101000a900473ffffffffffffffffffffffffffffffffffffffff1681565b6000805461031b9061051c565b80601f01602080910402602001604051908101604052809291908181526020018280546103479061051c565b80156103945780601f1061036957610100808354040283529160200191610394565b820191906000526020600020905b81548152906001019060200180831161037757829003601f168201915b505050505081565b60025481565b600081519050919050565b600082825260208201905092915050565b60005b838110156103dc5780820151818401526020810190506103c1565b838111156103eb576000848401525b50505050565b6000601f19601f8301169050919050565b600061040d826103a2565b61041781856103ad565b93506104278185602086016103be565b610430816103f1565b840191505092915050565b600060208201905081810360008301526104558184610402565b905092915050565b6000819050919050565b6104708161045d565b82525050565b600060208201905061048b6000830184610467565b92915050565b600073ffffffffffffffffffffffffffffffffffffffff82169050919050565b60006104bc82610491565b9050919050565b6104cc816104b1565b82525050565b60006020820190506104e760008301846104c3565b92915050565b7f4e487b7100000000000000000000000000000000000000000000000000000000600052602260045260246000fd5b6000600282049050600182168061053457607f821691505b60208210811415610548576105476104ed565b5b50919050565b7f50726f6a65637420416d6f756e742046756c6c66696c6c656400000000000000600082015250565b60006105846019836103ad565b915061058f8261054e565b602082019050919050565b600060208201905081810360008301526105b381610577565b9050919050565b7f4e487b7100000000000000000000000000000000000000000000000000000000600052601160045260246000fd5b60006105f48261045d565b91506105ff8361045d565b9250827fffffffffffffffffffffffffffffffffffffffffffffffffffffffffffffffff03821115610634576106336105ba565b5b82820190509291505056fea2646970667358221220bc5679b8aafc73ce4c01d26dd915e679d817213768a8f977f88e2bca01369bc764736f6c63430008090033a26469706673582212206c28e25df4e59e2fbb9ed6223c45a32571b7b38c3052bc85129c388991f49e8c64736f6c63430008090033",
    "linkReferences": {},
    "deployedLinkReferences": {}
}