{
    "_format": "hh-sol-artifact-1",
    "contractName": "ReleventFundFactory",
    "sourceName": "contracts/RelevantFund.sol",
    "abi": [
        {
            "anonymous": false,
            "inputs": [
                {
                    "indexed": false,
                    "internalType": "string",
                    "name": "projectName",
                    "type": "string"
                },
                {
                    "indexed": true,
                    "internalType": "string",
                    "name": "dept",
                    "type": "string"
                },
                {
                    "indexed": false,
                    "internalType": "uint256",
                    "name": "fundAmount",
                    "type": "uint256"
                },
                {
                    "indexed": true,
                    "internalType": "address",
                    "name": "owner",
                    "type": "address"
                },
                {
                    "indexed": false,
                    "internalType": "address",
                    "name": "fundRequest",
                    "type": "address"
                },
                {
                    "indexed": true,
                    "internalType": "uint256",
                    "name": "timestamp",
                    "type": "uint256"
                }
            ],
            "name": "fundRequestCreated",
            "type": "event"
        },
        {
            "inputs": [
                {
                    "internalType": "string",
                    "name": "_projectName",
                    "type": "string"
                },
                {
                    "internalType": "string",
                    "name": "_dept",
                    "type": "string"
                },
                {
                    "internalType": "uint256",
                    "name": "_fundAmount",
                    "type": "uint256"
                }
            ],
            "name": "createFinanceFund",
            "outputs": [],
            "stateMutability": "nonpayable",
            "type": "function"
        },
        {
            "inputs": [
                {
                    "internalType": "uint256",
                    "name": "",
                    "type": "uint256"
                }
            ],
            "name": "deployedFundsRequest",
            "outputs": [
                {
                    "internalType": "address",
                    "name": "",
                    "type": "address"
                }
            ],
            "stateMutability": "view",
            "type": "function"
        }
    ],
    "bytecode": "0x608060405234801561001057600080fd5b50611470806100206000396000f3fe60806040523480156200001157600080fd5b50600436106200003a5760003560e01c8063ab5b6627146200003f578063e06bcdf2146200005f575b600080fd5b6200005d6004803603810190620000579190620003ad565b62000095565b005b6200007d600480360381019062000077919062000447565b620001ae565b6040516200008c9190620004be565b60405180910390f35b600083838333604051620000a990620001ee565b620000b894939291906200057f565b604051809103906000f080158015620000d5573d6000803e3d6000fd5b5090506000819080600181540180825580915050600190039060005260206000200160009091909190916101000a81548173ffffffffffffffffffffffffffffffffffffffff021916908373ffffffffffffffffffffffffffffffffffffffff160217905550423373ffffffffffffffffffffffffffffffffffffffff16846040516200016391906200061c565b60405180910390207f792681fe205ff11a9dc755494a18990a45f23871bb160711a2bded9915922256878686604051620001a09392919062000635565b60405180910390a450505050565b60008181548110620001bf57600080fd5b906000526020600020016000915054906101000a900473ffffffffffffffffffffffffffffffffffffffff1681565b610dc1806200067a83390190565b6000604051905090565b600080fd5b600080fd5b600080fd5b600080fd5b6000601f19601f8301169050919050565b7f4e487b7100000000000000000000000000000000000000000000000000000000600052604160045260246000fd5b62000265826200021a565b810181811067ffffffffffffffff821117156200028757620002866200022b565b5b80604052505050565b60006200029c620001fc565b9050620002aa82826200025a565b919050565b600067ffffffffffffffff821115620002cd57620002cc6200022b565b5b620002d8826200021a565b9050602081019050919050565b82818337600083830152505050565b60006200030b6200030584620002af565b62000290565b9050828152602081018484840111156200032a576200032962000215565b5b62000337848285620002e5565b509392505050565b600082601f83011262000357576200035662000210565b5b813562000369848260208601620002f4565b91505092915050565b6000819050919050565b620003878162000372565b81146200039357600080fd5b50565b600081359050620003a7816200037c565b92915050565b600080600060608486031215620003c957620003c862000206565b5b600084013567ffffffffffffffff811115620003ea57620003e96200020b565b5b620003f8868287016200033f565b935050602084013567ffffffffffffffff8111156200041c576200041b6200020b565b5b6200042a868287016200033f565b92505060406200043d8682870162000396565b9150509250925092565b60006020828403121562000460576200045f62000206565b5b6000620004708482850162000396565b91505092915050565b600073ffffffffffffffffffffffffffffffffffffffff82169050919050565b6000620004a68262000479565b9050919050565b620004b88162000499565b82525050565b6000602082019050620004d56000830184620004ad565b92915050565b600081519050919050565b600082825260208201905092915050565b60005b8381101562000517578082015181840152602081019050620004fa565b8381111562000527576000848401525b50505050565b60006200053a82620004db565b620005468185620004e6565b935062000558818560208601620004f7565b62000563816200021a565b840191505092915050565b620005798162000372565b82525050565b600060808201905081810360008301526200059b81876200052d565b90508181036020830152620005b181866200052d565b9050620005c260408301856200056e565b620005d16060830184620004ad565b95945050505050565b600081905092915050565b6000620005f282620004db565b620005fe8185620005da565b935062000610818560208601620004f7565b80840191505092915050565b60006200062a8284620005e5565b915081905092915050565b600060608201905081810360008301526200065181866200052d565b90506200066260208301856200056e565b620006716040830184620004ad565b94935050505056fe60806040523480156200001157600080fd5b5060405162000dc138038062000dc18339818101604052810190620000379190620003b0565b83600090805190602001906200004f929190620000c3565b50826001908051906020019062000068929190620000c3565b508160028190555080600360006101000a81548173ffffffffffffffffffffffffffffffffffffffff021916908373ffffffffffffffffffffffffffffffffffffffff160217905550600060058190555050505050620004c5565b828054620000d1906200048f565b90600052602060002090601f016020900481019282620000f5576000855562000141565b82601f106200011057805160ff191683800117855562000141565b8280016001018555821562000141579182015b828111156200014057825182559160200191906001019062000123565b5b50905062000150919062000154565b5090565b5b808211156200016f57600081600090555060010162000155565b5090565b6000604051905090565b600080fd5b600080fd5b600080fd5b600080fd5b6000601f19601f8301169050919050565b7f4e487b7100000000000000000000000000000000000000000000000000000000600052604160045260246000fd5b620001dc8262000191565b810181811067ffffffffffffffff82111715620001fe57620001fd620001a2565b5b80604052505050565b60006200021362000173565b9050620002218282620001d1565b919050565b600067ffffffffffffffff821115620002445762000243620001a2565b5b6200024f8262000191565b9050602081019050919050565b60005b838110156200027c5780820151818401526020810190506200025f565b838111156200028c576000848401525b50505050565b6000620002a9620002a38462000226565b62000207565b905082815260208101848484011115620002c857620002c76200018c565b5b620002d58482856200025c565b509392505050565b600082601f830112620002f557620002f462000187565b5b81516200030784826020860162000292565b91505092915050565b6000819050919050565b620003258162000310565b81146200033157600080fd5b50565b60008151905062000345816200031a565b92915050565b600073ffffffffffffffffffffffffffffffffffffffff82169050919050565b600062000378826200034b565b9050919050565b6200038a816200036b565b81146200039657600080fd5b50565b600081519050620003aa816200037f565b92915050565b60008060008060808587031215620003cd57620003cc6200017d565b5b600085015167ffffffffffffffff811115620003ee57620003ed62000182565b5b620003fc87828801620002dd565b945050602085015167ffffffffffffffff81111562000420576200041f62000182565b5b6200042e87828801620002dd565b9350506040620004418782880162000334565b9250506060620004548782880162000399565b91505092959194509250565b7f4e487b7100000000000000000000000000000000000000000000000000000000600052602260045260246000fd5b60006002820490506001821680620004a857607f821691505b60208210811415620004bf57620004be62000460565b5b50919050565b6108ec80620004d56000396000f3fe60806040526004361061007b5760003560e01c80638da5cb5b1161004e5780638da5cb5b146101095780639a33e30014610134578063aaf7e7041461015f578063f1c5d2471461018a5761007b565b8063200d2ed214610080578063504d27fd146100ab57806350ac1603146100b557806389d21354146100e0575b600080fd5b34801561008c57600080fd5b506100956101b5565b6040516100a291906104d3565b60405180910390f35b6100b36101bb565b005b3480156100c157600080fd5b506100ca61031d565b6040516100d791906104d3565b60405180910390f35b3480156100ec57600080fd5b506101076004803603810190610102919061051f565b610323565b005b34801561011557600080fd5b5061011e610372565b60405161012b919061058d565b60405180910390f35b34801561014057600080fd5b50610149610398565b6040516101569190610641565b60405180910390f35b34801561016b57600080fd5b50610174610426565b60405161018191906104d3565b60405180910390f35b34801561019657600080fd5b5061019f61042c565b6040516101ac9190610641565b60405180910390f35b60055481565b60045460025411610201576040517f08c379a00000000000000000000000000000000000000000000000000000000081526004016101f8906106af565b60405180910390fd5b600060055414610246576040517f08c379a000000000000000000000000000000000000000000000000000000000815260040161023d9061071b565b60405180910390fd5b600360009054906101000a900473ffffffffffffffffffffffffffffffffffffffff1673ffffffffffffffffffffffffffffffffffffffff166108fc349081150290604051600060405180830381858888f193505050501580156102ae573d6000803e3d6000fd5b5034600460008282546102c1919061076a565b92505081905550343373ffffffffffffffffffffffffffffffffffffffff167f5563437e5ee4252e0641674c04a23bf3cf0c9eeeb3529666d0f7c0aaa6696566600554426040516103139291906107c0565b60405180910390a3565b60045481565b600060055414610368576040517f08c379a000000000000000000000000000000000000000000000000000000000815260040161035f90610835565b60405180910390fd5b8060058190555050565b600360009054906101000a900473ffffffffffffffffffffffffffffffffffffffff1681565b600080546103a590610884565b80601f01602080910402602001604051908101604052809291908181526020018280546103d190610884565b801561041e5780601f106103f35761010080835404028352916020019161041e565b820191906000526020600020905b81548152906001019060200180831161040157829003601f168201915b505050505081565b60025481565b6001805461043990610884565b80601f016020809104026020016040519081016040528092919081815260200182805461046590610884565b80156104b25780601f10610487576101008083540402835291602001916104b2565b820191906000526020600020905b81548152906001019060200180831161049557829003601f168201915b505050505081565b6000819050919050565b6104cd816104ba565b82525050565b60006020820190506104e860008301846104c4565b92915050565b600080fd5b6104fc816104ba565b811461050757600080fd5b50565b600081359050610519816104f3565b92915050565b600060208284031215610535576105346104ee565b5b60006105438482850161050a565b91505092915050565b600073ffffffffffffffffffffffffffffffffffffffff82169050919050565b60006105778261054c565b9050919050565b6105878161056c565b82525050565b60006020820190506105a2600083018461057e565b92915050565b600081519050919050565b600082825260208201905092915050565b60005b838110156105e25780820151818401526020810190506105c7565b838111156105f1576000848401525b50505050565b6000601f19601f8301169050919050565b6000610613826105a8565b61061d81856105b3565b935061062d8185602086016105c4565b610636816105f7565b840191505092915050565b6000602082019050818103600083015261065b8184610608565b905092915050565b7f50726f6a65637420416d6f756e742046756c6c66696c6c656400000000000000600082015250565b60006106996019836105b3565b91506106a482610663565b602082019050919050565b600060208201905081810360008301526106c88161068c565b9050919050565b7f50726f6a65637420537461747573206973206e6f742070656e64696e67000000600082015250565b6000610705601d836105b3565b9150610710826106cf565b602082019050919050565b60006020820190508181036000830152610734816106f8565b9050919050565b7f4e487b7100000000000000000000000000000000000000000000000000000000600052601160045260246000fd5b6000610775826104ba565b9150610780836104ba565b9250827fffffffffffffffffffffffffffffffffffffffffffffffffffffffffffffffff038211156107b5576107b461073b565b5b828201905092915050565b60006040820190506107d560008301856104c4565b6107e260208301846104c4565b9392505050565b7f43616e6e6f74206368616e676520746865207374617475730000000000000000600082015250565b600061081f6018836105b3565b915061082a826107e9565b602082019050919050565b6000602082019050818103600083015261084e81610812565b9050919050565b7f4e487b7100000000000000000000000000000000000000000000000000000000600052602260045260246000fd5b6000600282049050600182168061089c57607f821691505b602082108114156108b0576108af610855565b5b5091905056fea2646970667358221220173d2f866f0144d3c36cb148f16f4492cd633f1506663d8aa4266da7452bafda64736f6c63430008090033a26469706673582212209b6102fa76692284b40159922b388cd9116750c7d0d83b471348d6c7ce65983064736f6c63430008090033",
    "linkReferences": {},
    "deployedLinkReferences": {}
}