{
    "_format": "hh-sol-artifact-1",
    "contractName": "RelevantFund",
    "sourceName": "contracts/RelevantFund.sol",
    "abi": [
        {
            "inputs": [
                {
                    "internalType": "string",
                    "name": "_projectName",
                    "type": "string"
                },
                {
                    "internalType": "string",
                    "name": "_dept",
                    "type": "string"
                },
                {
                    "internalType": "uint256",
                    "name": "_fundAmount",
                    "type": "uint256"
                },
                {
                    "internalType": "address",
                    "name": "_owner",
                    "type": "address"
                }
            ],
            "stateMutability": "nonpayable",
            "type": "constructor"
        },
        {
            "anonymous": false,
            "inputs": [
                {
                    "indexed": true,
                    "internalType": "address",
                    "name": "donar",
                    "type": "address"
                },
                {
                    "indexed": false,
                    "internalType": "uint256",
                    "name": "status",
                    "type": "uint256"
                },
                {
                    "indexed": true,
                    "internalType": "uint256",
                    "name": "fundAmount",
                    "type": "uint256"
                },
                {
                    "indexed": false,
                    "internalType": "uint256",
                    "name": "timeStamp",
                    "type": "uint256"
                }
            ],
            "name": "amountTransfered",
            "type": "event"
        },
        {
            "inputs": [
                {
                    "internalType": "uint256",
                    "name": "_status",
                    "type": "uint256"
                }
            ],
            "name": "RequestStatus",
            "outputs": [],
            "stateMutability": "nonpayable",
            "type": "function"
        },
        {
            "inputs": [],
            "name": "dept",
            "outputs": [
                {
                    "internalType": "string",
                    "name": "",
                    "type": "string"
                }
            ],
            "stateMutability": "view",
            "type": "function"
        },
        {
            "inputs": [],
            "name": "fundAmount",
            "outputs": [
                {
                    "internalType": "uint256",
                    "name": "",
                    "type": "uint256"
                }
            ],
            "stateMutability": "view",
            "type": "function"
        },
        {
            "inputs": [],
            "name": "owner",
            "outputs": [
                {
                    "internalType": "address payable",
                    "name": "",
                    "type": "address"
                }
            ],
            "stateMutability": "view",
            "type": "function"
        },
        {
            "inputs": [],
            "name": "projectName",
            "outputs": [
                {
                    "internalType": "string",
                    "name": "",
                    "type": "string"
                }
            ],
            "stateMutability": "view",
            "type": "function"
        },
        {
            "inputs": [],
            "name": "receviedAmount",
            "outputs": [
                {
                    "internalType": "uint256",
                    "name": "",
                    "type": "uint256"
                }
            ],
            "stateMutability": "view",
            "type": "function"
        },
        {
            "inputs": [],
            "name": "status",
            "outputs": [
                {
                    "internalType": "uint256",
                    "name": "",
                    "type": "uint256"
                }
            ],
            "stateMutability": "view",
            "type": "function"
        },
        {
            "inputs": [],
            "name": "transferAmount",
            "outputs": [],
            "stateMutability": "payable",
            "type": "function"
        }
    ],
    "bytecode": "0x60806040523480156200001157600080fd5b5060405162000dc138038062000dc18339818101604052810190620000379190620003b0565b83600090805190602001906200004f929190620000c3565b50826001908051906020019062000068929190620000c3565b508160028190555080600360006101000a81548173ffffffffffffffffffffffffffffffffffffffff021916908373ffffffffffffffffffffffffffffffffffffffff160217905550600060058190555050505050620004c5565b828054620000d1906200048f565b90600052602060002090601f016020900481019282620000f5576000855562000141565b82601f106200011057805160ff191683800117855562000141565b8280016001018555821562000141579182015b828111156200014057825182559160200191906001019062000123565b5b50905062000150919062000154565b5090565b5b808211156200016f57600081600090555060010162000155565b5090565b6000604051905090565b600080fd5b600080fd5b600080fd5b600080fd5b6000601f19601f8301169050919050565b7f4e487b7100000000000000000000000000000000000000000000000000000000600052604160045260246000fd5b620001dc8262000191565b810181811067ffffffffffffffff82111715620001fe57620001fd620001a2565b5b80604052505050565b60006200021362000173565b9050620002218282620001d1565b919050565b600067ffffffffffffffff821115620002445762000243620001a2565b5b6200024f8262000191565b9050602081019050919050565b60005b838110156200027c5780820151818401526020810190506200025f565b838111156200028c576000848401525b50505050565b6000620002a9620002a38462000226565b62000207565b905082815260208101848484011115620002c857620002c76200018c565b5b620002d58482856200025c565b509392505050565b600082601f830112620002f557620002f462000187565b5b81516200030784826020860162000292565b91505092915050565b6000819050919050565b620003258162000310565b81146200033157600080fd5b50565b60008151905062000345816200031a565b92915050565b600073ffffffffffffffffffffffffffffffffffffffff82169050919050565b600062000378826200034b565b9050919050565b6200038a816200036b565b81146200039657600080fd5b50565b600081519050620003aa816200037f565b92915050565b60008060008060808587031215620003cd57620003cc6200017d565b5b600085015167ffffffffffffffff811115620003ee57620003ed62000182565b5b620003fc87828801620002dd565b945050602085015167ffffffffffffffff81111562000420576200041f62000182565b5b6200042e87828801620002dd565b9350506040620004418782880162000334565b9250506060620004548782880162000399565b91505092959194509250565b7f4e487b7100000000000000000000000000000000000000000000000000000000600052602260045260246000fd5b60006002820490506001821680620004a857607f821691505b60208210811415620004bf57620004be62000460565b5b50919050565b6108ec80620004d56000396000f3fe60806040526004361061007b5760003560e01c80638da5cb5b1161004e5780638da5cb5b146101095780639a33e30014610134578063aaf7e7041461015f578063f1c5d2471461018a5761007b565b8063200d2ed214610080578063504d27fd146100ab57806350ac1603146100b557806389d21354146100e0575b600080fd5b34801561008c57600080fd5b506100956101b5565b6040516100a291906104d3565b60405180910390f35b6100b36101bb565b005b3480156100c157600080fd5b506100ca61031d565b6040516100d791906104d3565b60405180910390f35b3480156100ec57600080fd5b506101076004803603810190610102919061051f565b610323565b005b34801561011557600080fd5b5061011e610372565b60405161012b919061058d565b60405180910390f35b34801561014057600080fd5b50610149610398565b6040516101569190610641565b60405180910390f35b34801561016b57600080fd5b50610174610426565b60405161018191906104d3565b60405180910390f35b34801561019657600080fd5b5061019f61042c565b6040516101ac9190610641565b60405180910390f35b60055481565b60045460025411610201576040517f08c379a00000000000000000000000000000000000000000000000000000000081526004016101f8906106af565b60405180910390fd5b600060055414610246576040517f08c379a000000000000000000000000000000000000000000000000000000000815260040161023d9061071b565b60405180910390fd5b600360009054906101000a900473ffffffffffffffffffffffffffffffffffffffff1673ffffffffffffffffffffffffffffffffffffffff166108fc349081150290604051600060405180830381858888f193505050501580156102ae573d6000803e3d6000fd5b5034600460008282546102c1919061076a565b92505081905550343373ffffffffffffffffffffffffffffffffffffffff167f5563437e5ee4252e0641674c04a23bf3cf0c9eeeb3529666d0f7c0aaa6696566600554426040516103139291906107c0565b60405180910390a3565b60045481565b600060055414610368576040517f08c379a000000000000000000000000000000000000000000000000000000000815260040161035f90610835565b60405180910390fd5b8060058190555050565b600360009054906101000a900473ffffffffffffffffffffffffffffffffffffffff1681565b600080546103a590610884565b80601f01602080910402602001604051908101604052809291908181526020018280546103d190610884565b801561041e5780601f106103f35761010080835404028352916020019161041e565b820191906000526020600020905b81548152906001019060200180831161040157829003601f168201915b505050505081565b60025481565b6001805461043990610884565b80601f016020809104026020016040519081016040528092919081815260200182805461046590610884565b80156104b25780601f10610487576101008083540402835291602001916104b2565b820191906000526020600020905b81548152906001019060200180831161049557829003601f168201915b505050505081565b6000819050919050565b6104cd816104ba565b82525050565b60006020820190506104e860008301846104c4565b92915050565b600080fd5b6104fc816104ba565b811461050757600080fd5b50565b600081359050610519816104f3565b92915050565b600060208284031215610535576105346104ee565b5b60006105438482850161050a565b91505092915050565b600073ffffffffffffffffffffffffffffffffffffffff82169050919050565b60006105778261054c565b9050919050565b6105878161056c565b82525050565b60006020820190506105a2600083018461057e565b92915050565b600081519050919050565b600082825260208201905092915050565b60005b838110156105e25780820151818401526020810190506105c7565b838111156105f1576000848401525b50505050565b6000601f19601f8301169050919050565b6000610613826105a8565b61061d81856105b3565b935061062d8185602086016105c4565b610636816105f7565b840191505092915050565b6000602082019050818103600083015261065b8184610608565b905092915050565b7f50726f6a65637420416d6f756e742046756c6c66696c6c656400000000000000600082015250565b60006106996019836105b3565b91506106a482610663565b602082019050919050565b600060208201905081810360008301526106c88161068c565b9050919050565b7f50726f6a65637420537461747573206973206e6f742070656e64696e67000000600082015250565b6000610705601d836105b3565b9150610710826106cf565b602082019050919050565b60006020820190508181036000830152610734816106f8565b9050919050565b7f4e487b7100000000000000000000000000000000000000000000000000000000600052601160045260246000fd5b6000610775826104ba565b9150610780836104ba565b9250827fffffffffffffffffffffffffffffffffffffffffffffffffffffffffffffffff038211156107b5576107b461073b565b5b828201905092915050565b60006040820190506107d560008301856104c4565b6107e260208301846104c4565b9392505050565b7f43616e6e6f74206368616e676520746865207374617475730000000000000000600082015250565b600061081f6018836105b3565b915061082a826107e9565b602082019050919050565b6000602082019050818103600083015261084e81610812565b9050919050565b7f4e487b7100000000000000000000000000000000000000000000000000000000600052602260045260246000fd5b6000600282049050600182168061089c57607f821691505b602082108114156108b0576108af610855565b5b5091905056fea2646970667358221220173d2f866f0144d3c36cb148f16f4492cd633f1506663d8aa4266da7452bafda64736f6c63430008090033",
    "linkReferences": {},
    "deployedLinkReferences": {}
}